:100000000C9434000C943E000C943E000C943E0082
:100010000C943E000C943E000C943E000C943E0068
:100020000C943E000C943E000C943E000C943E0058
:100030000C943E000C943E000C943E000C943E0048
:100040000C943E000C943E000C943E000C943E0038
:100050000C943E000C943E000C943E000C943E0028
:100060000C943E000C943E0011241FBECFEFD8E04C
:10007000DEBFCDBF0E9440000C946B000C940000CA
:1000800088EF84B987E085B98CE38AB923B12470FD
:1000900093B153B181E0692F627091FD80E04BB163
:1000A00031E0211101C030E091E0611101C090E028
:1000B000392391E0211190E09823932B8523892BFC
:1000C000880F880F842B8BB98BB18BB98BB18BB90F
:0A00D0008BB18BB9DBCFF894FFCFA2
:00000001FF
